:020000040000FA
:100000000C9462000C948A000C948A000C948A0070
:100010000C948A000C948A000C948A000C948A0038
:100020000C948A000C948A000C948A000C948A0028
:100030000C948A000C948A000C948A000C948A0018
:100040000C94C1030C948A000C948A000C948A00CE
:100050000C948A000C948A000C948A000C948A00F8
:100060000C940B040C948A0000000000240027006C
:100070002A0000000000250028002B0000000000DE
:1000800023002600290004040404040404040202DA
:100090000202020203030303030301020408102007
:1000A0004080010204081020010204081020000012
:1000B0000008000201000003040700000000000027
:1000C0000000260511241FBECFEFD8E0DEBFCDBF54
:1000D00011E0A0E0B1E0E8EFFCE002C005900D9275
:1000E000A234B107D9F721E0A2E4B1E001C01D922A
:1000F000A83FB207E1F710E0C2E6D0E004C02197C4
:10010000FE010E947406C136D107C9F70E94460558
:100110000C947A060C940000AF92BF92CF92DF92BB
:10012000EF92FF920F931F93CF93DF936C017B01AC
:100130008B01040F151FEB015E01AE18BF08C0173D
:10014000D10759F06991D601ED91FC910190F081B0
:10015000E02DC6010995892B79F7C501DF91CF9173
:100160001F910F91FF90EF90DF90CF90BF90AF90D5
:100170000895833081F028F4813099F08230A9F01D
:1001800008958730A9F08830C9F08430B1F48091A7
:1001900080008F7D03C0809180008F7780938000E6
:1001A000089584B58F7784BD089584B58F7DFBCF86
:1001B0008091B0008F778093B00008958091B00057
:1001C0008F7DF9CF1F93CF93DF93282F30E0F90174
:1001D000E255FF4F8491F901E656FF4FD491F901A2
:1001E000EA57FF4FC491CC23A9F0162F81110E942A
:1001F000B900EC2FF0E0EE0FFF1FEE58FF4FA59176
:10020000B4918FB7F894EC91111108C0D095DE230A
:10021000DC938FBFDF91CF911F910895DE2BF8CF34
:10022000CF93DF9390E0FC01E656FF4F24918A576D
:100230009F4FFC0184918823D1F090E0880F991F93
:10024000FC01E859FF4FA591B491FC01EE58FF4F16
:10025000C591D49161110EC09FB7F8948C91E22F93
:10026000E0958E238C932881E223E8839FBFDF9162
:10027000CF9108958FB7F894EC91E22BEC938FBF58
:10028000F6CF3FB7F8948091DC019091DD01A09109
:10029000DE01B091DF0126B5A89B05C02F3F19F004
:1002A0000196A11DB11D3FBFBA2FA92F982F8827F6
:1002B000BC01CD01620F711D811D911D42E0660FD1
:1002C000771F881F991F4A95D1F708958F929F92A3
:1002D000AF92BF92CF92DF92EF92FF924B015C01FF
:1002E0000E9441016B017C010E9441016C197D0952
:1002F0008E099F09683E734081059105A8F321E0AE
:10030000821A9108A108B10888EEC80E83E0D81EB1
:10031000E11CF11C81149104A104B10429F7FF90A0
:10032000EF90DF90CF90BF90AF909F908F90089507
:100330001F93CF93DF93C1E0C0936C01882399F1A1
:10034000D091B8001091BA008091BC008A7B809354
:10035000BC0060E082E10E94E20060E083E10E9474
:10036000E2001092B101C093B3011092B20161E0BA
:1003700082E10E94E20061E083E10E94E20080915C
:10038000B9008E7F8093B9008091B9008D7F8093F2
:10039000B90088E48093B80085E48093BC00109392
:1003A000BA00D093B800DF91CF911F9108952091AA
:1003B0008D01260F3327331F21323105ECF42091B4
:1003C000B101FC0190E080E0243069F082E0089502
:1003D000A0918D012191AC0143595E4FA40FB52F1F
:1003E000B11D2C930196861798F380918D01680FAB
:1003F00060938D0180E0089581E0089508958FEF66
:100400009FEF08958FEF9FEF08958091660190E030
:100410009195819591090895CF92DF92EF92FF9285
:100420000F931F93CF93DF937C01CB018A0120911F
:100430006501222389F0EB016B01C40ED51ECC159A
:10044000DD0569F06991D701ED91FC910190F08192
:10045000E02DC7010995F3CF642F0E94D701C80191
:10046000DF91CF911F910F91FF90EF90DF90CF9090
:100470000895CF93DF931F92CDB7DEB769832091A4
:1004800065012223F9F020916401203258F021E027
:1004900030E0FC013383228390E080E00F90DF9115
:1004A000CF91089580916301E82FF0E0ED5BFE4F5E
:1004B000998190838F5F809363018093640181E0D1
:1004C00090E0ECCF61E0CE0101960E94D701F7CF1A
:1004D000CF92DF92EF92FF920F931F93CF93DF9310
:1004E000FC01C48121E020936501C0934201109278
:1004F0006301109264018385682B80EE91E00E9475
:100500003902D0916401D13208F092C00E944101B9
:100510006B017C018091B101811165C082E0809303
:10052000B10181E08093B3018FEF8093B00110920D
:10053000D501D093D401A3E4B1E0E4EBF1E080E095
:10054000D81385C01092D6018091D601CC0FC82B4C
:10055000C093D6018091B201813009F07CC0109225
:10056000B2010E9441016B017C018091D601809310
:10057000BB008091680190916901A0916A01B091DE
:100580006B01892B8A2B8B2B99F00E9441010091E2
:1005900068011091690120916A0130916B016C1919
:1005A0007D098E099F090617170728073907E0F10B
:1005B0008091BC0083FDD9CF85EC8093BC000E9464
:1005C00041016B017C018091B101823009F445C089
:1005D0008091B0018F3F61F18091B001803241F193
:1005E0008091B00125C08091680190916901A0912E
:1005F0006A01B0916B01892B8A2B8B2B09F48ACF6E
:100600000E944101009168011091690120916A01E5
:1006100030916B016C197D098E099F090617170728
:100620002807390708F076CF809167010E9498016A
:10063000109263011092640110926501DF91CF91D5
:100640001F910F91FF90EF90DF90CF9008959D91B3
:1006500091938F5F75CF85EEB0CF809168019091B7
:100660006901A0916A01B0916B01892B8A2B8B2BB8
:1006700009F4A9CF0E94410100916801109169011C
:1006800020916A0130916B016C197D098E099F09D7
:10069000061717072807390708F095CFC5CF089523
:1006A00090E080E0089585ED8093BC008091680122
:1006B00090916901A0916A01B0916B010796A11D0B
:1006C000B11D23E0B695A795979587952A95D1F703
:1006D0002091BC0024FD03C01092B1010895409107
:1006E00068015091690160916A0170916B01452B1D
:1006F000462B472B69F30097A105B10541F025E38F
:100700002A95F1F700000197A109B109E1CF809185
:1007100067010C9498010F931F93CF938C01C62F00
:100720000E9468026C2F6460C8010E9468026C2FEE
:100730006B7FC8010E94680283EC90E00197F1F79B
:10074000CF911F910F9108950F931F93CF93DF9334
:100750008C01D62FC42F607F642B0E948B0380E115
:10076000D89FB00111246C2BC801DF91CF911F914C
:100770000F910C948B0341E00E94A40381E090E070
:1007800008951F920F920FB60F9211242F933F934B
:100790008F939F93AF93BF938091D8019091D9018C
:1007A000A091DA01B091DB013091D70123E0230F52
:1007B0002D3758F50196A11DB11D2093D7018093C7
:1007C000D8019093D901A093DA01B093DB01809115
:1007D000DC019091DD01A091DE01B091DF01019675
:1007E000A11DB11D8093DC019093DD01A093DE017A
:1007F000B093DF01BF91AF919F918F913F912F9166
:100800000F900FBE0F901F90189526E8230F0296A9
:10081000A11DB11DD2CF1F920F920FB60F921124BE
:100820002F933F934F935F936F937F938F939F93F8
:10083000AF93BF93EF93FF938091B900887F803689
:1008400009F44AC0F0F5883209F4A5C018F58031E2
:1008500009F499C0B8F4882309F4F5C0883009F484
:1008600092C0FF91EF91BF91AF919F918F917F9136
:100870006F915F914F913F912F910F900FBE0F900D
:100880001F901895883109F486C0803251F7809303
:10089000B00114C0803409F49BC040F48033B9F334
:1008A0008833F9F68093B00185ECAEC0803509F449
:1008B00083C0883509F494C0883499F60E945303A4
:1008C000D0CF883909F48AC038F5883729F050F438
:1008D000883611F0803729F683E08093B1011092B9
:1008E000AF0155C0883809F479C0803919F08038D3
:1008F00009F0B7CF8091AF01803208F06FC0E0916E
:10090000AF0181E08E0F8093AF018091BB00F0E0DA
:10091000E157FE4F80833BC0803B39F0D0F4803AF2
:1009200009F477C0883A09F09CCF84E08093B10144
:1009300010928E0110928D01F0E0E0E00995809117
:100940008D0181110FC081E080938D0110926D01A6
:1009500009C0803C09F4A8CF883C09F4A5CF883BA6
:1009600009F07FCFE0918E0181E08E0F80938E01A0
:10097000F0E0E359FE4F80818093BB0090918E019F
:1009800080918D0129C08091D6018093BB0085ECB8
:100990008093BC0066CF9091D5018091D4019817C7
:1009A00058F5E091D50181E08E0F8093D501F0E0FC
:1009B000EC54FE4F8081E9CFE091D50181E08E0FAC
:1009C0008093D5018091BB00F0E0EC54FE4F808312
:1009D0009091D5018091D4019817C8F285E8D8CFBD
:1009E000E091D50181E08E0F8093D5018091BB000D
:1009F000F0E0EC54FE4F80838091B30181115ECF13
:100A000081E08093B20184EA8093BC001092B1012E
:100A100028CF85EC8093BC001092B1018091AF018A
:100A2000803230F4E091AF01F0E0E157FE4F1082E8
:100A30006091AF0170E08FE891E0F0E0E0E00995AF
:100A40001092AF010ECF1092B00138CFE0EEF1E07E
:100A50001382128288EE93E0A0E0B0E08483958355
:100A6000A683B7838CE091E091838083ECEEF1E084
:100A7000138212828EE191E09183808387E28483E6
:100A800080E1818782E0828713860895CF93DF9388
:100A9000CDB7DEB728970FB6F894DEBF0FBECDBF37
:100AA000789484B5826084BD84B5816084BD85B549
:100AB000826085BD85B5816085BD80916E00816055
:100AC00080936E00109281008091810082608093FB
:100AD00081008091810081608093810080918000FD
:100AE0008160809380008091B10084608093B10028
:100AF0008091B00081608093B00080917A00846022
:100B000080937A0080917A00826080937A0080914D
:100B10007A00816080937A0080917A008068809367
:100B20007A001092C10060E087E00E94100161E04D
:100B30008CE00E94100161E08DE00E941001809124
:100B4000F10188608093F10122E0F22EF092F4012D
:100B500062E370E080E090E00E9466016091F7013E
:100B60008CEE91E00E94680268EE73E080E090E015
:100B70000E94660160E38CEE91E00E948B030BE41F
:100B800016E4C8010197F1F760E38CEE91E00E9452
:100B90008B03C8010197F1F760E38CEE91E00E94AE
:100BA0008B0383E592E00197F1F760E28CEE91E030
:100BB0000E948B036091F101606240E08CEE91E055
:100BC0000E94A40384E08093F20140E06CE08CEE8C
:100BD00091E00E94A40340E061E08CEE91E00E946D
:100BE000A4030BE31FE1C8010197F1F7F092F301B1
:100BF00040E066E08CEE91E00E94A40340E062E0F9
:100C00008CEE91E00E94A403C8010197F1F788E0FF
:100C10008093F70160E08CEE91E00E94680205EBA2
:100C200010E031EAE32E30E0F32E4DE8C42E40E030
:100C3000D42E50E0A52E50E0B52EF8018491F70196
:100C40009490F6018490882001F181110E94B900EE
:100C5000E82DF0E0EE0FFF1FE458FF4FA591B4918F
:100C60008C91982291F061E08CE00E94E2004FE0CC
:100C700050E066E271E08CEE91E00E948C00A114DD
:100C8000B104D9F20E940000D8CF61E08DE00E944B
:100C9000E2004AE050E066E371E08CEE91E00E94F1
:100CA0008C0088E0E0E0F1E0DE01119601900D9209
:100CB0008A95E1F78091F401EFEF8111E1E0F0E036
:100CC000EE0FFF1F81E090E08C0F9D1FE80FF91FD2
:100CD0006081606840E08CEE91E00E94A40348E0EF
:100CE00050E06DE271E0C7CFEE0FFF1F0590F49169
:100CF000E02D0994F894FFCF000040001400540048
:100D00000000000039020C025003FE01050202023D
:100D1000FF0100000000BB038C0050034F036D6F08
:100D200074696F6E206465746563746564006D6FCB
:0A0D300074696F6E206E6F7400008E
:107E0000112484B714BE81FFF0D085E080938100F7
:107E100082E08093C00088E18093C10086E0809377
:107E2000C20080E18093C4008EE0C9D0259A86E02C
:107E300020E33CEF91E0309385002093840096BBD3
:107E4000B09BFECF1D9AA8958150A9F7CC24DD24C4
:107E500088248394B5E0AB2EA1E19A2EF3E0BF2EE7
:107E6000A2D0813461F49FD0082FAFD0023811F036
:107E7000013811F484E001C083E08DD089C08234E0
:107E800011F484E103C0853419F485E0A6D080C0E4
:107E9000853579F488D0E82EFF2485D0082F10E0AE
:107EA000102F00270E291F29000F111F8ED06801E7
:107EB0006FC0863521F484E090D080E0DECF843638
:107EC00009F040C070D06FD0082F6DD080E0C81688
:107ED00080E7D80618F4F601B7BEE895C0E0D1E017
:107EE00062D089930C17E1F7F0E0CF16F0E7DF06D8
:107EF00018F0F601B7BEE89568D007B600FCFDCFD4
:107F0000A601A0E0B1E02C9130E011968C91119780
:107F100090E0982F8827822B932B1296FA010C0160
:107F200087BEE89511244E5F5F4FF1E0A038BF0790
:107F300051F7F601A7BEE89507B600FCFDCF97BE46
:107F4000E89526C08437B1F42ED02DD0F82E2BD052
:107F50003CD0F601EF2C8F010F5F1F4F84911BD097
:107F6000EA94F801C1F70894C11CD11CFA94CF0C13
:107F7000D11C0EC0853739F428D08EE10CD085E9AC
:107F80000AD08FE07ACF813511F488E018D01DD067
:107F900080E101D065CF982F8091C00085FFFCCF94
:107FA0009093C60008958091C00087FFFCCF809118
:107FB000C00084FD01C0A8958091C6000895E0E648
:107FC000F0E098E1908380830895EDDF803219F02E
:107FD00088E0F5DFFFCF84E1DECF1F93182FE3DFCA
:107FE0001150E9F7F2DF1F91089580E0E8DFEE27F6
:047FF000FF270994CA
:027FFE00040479
:00000001FF
